{
  "address": "0xb8892942F3089127d7CFfA93861E76E03EB5645C",
  "abi": [
    {
      "inputs": [
        {
          "internalType": "address",
          "name": "_root",
          "type": "address"
        }
      ],
      "stateMutability": "nonpayable",
      "type": "constructor"
    },
    {
      "anonymous": false,
      "inputs": [
        {
          "indexed": true,
          "internalType": "bytes32",
          "name": "role",
          "type": "bytes32"
        },
        {
          "indexed": true,
          "internalType": "bytes32",
          "name": "previousAdminRole",
          "type": "bytes32"
        },
        {
          "indexed": true,
          "internalType": "bytes32",
          "name": "newAdminRole",
          "type": "bytes32"
        }
      ],
      "name": "RoleAdminChanged",
      "type": "event"
    },
    {
      "anonymous": false,
      "inputs": [
        {
          "indexed": true,
          "internalType": "bytes32",
          "name": "role",
          "type": "bytes32"
        },
        {
          "indexed": true,
          "internalType": "address",
          "name": "account",
          "type": "address"
        },
        {
          "indexed": true,
          "internalType": "address",
          "name": "sender",
          "type": "address"
        }
      ],
      "name": "RoleGranted",
      "type": "event"
    },
    {
      "anonymous": false,
      "inputs": [
        {
          "indexed": true,
          "internalType": "bytes32",
          "name": "role",
          "type": "bytes32"
        },
        {
          "indexed": true,
          "internalType": "address",
          "name": "account",
          "type": "address"
        },
        {
          "indexed": true,
          "internalType": "address",
          "name": "sender",
          "type": "address"
        }
      ],
      "name": "RoleRevoked",
      "type": "event"
    },
    {
      "anonymous": false,
      "inputs": [
        {
          "indexed": true,
          "internalType": "address",
          "name": "_from",
          "type": "address"
        },
        {
          "indexed": true,
          "internalType": "address",
          "name": "_to",
          "type": "address"
        }
      ],
      "name": "RootPulled",
      "type": "event"
    },
    {
      "anonymous": false,
      "inputs": [
        {
          "indexed": true,
          "internalType": "address",
          "name": "_from",
          "type": "address"
        },
        {
          "indexed": true,
          "internalType": "address",
          "name": "_to",
          "type": "address"
        }
      ],
      "name": "RootPushed",
      "type": "event"
    },
    {
      "inputs": [],
      "name": "ADMIN",
      "outputs": [
        {
          "internalType": "bytes32",
          "name": "",
          "type": "bytes32"
        }
      ],
      "stateMutability": "view",
      "type": "function"
    },
    {
      "inputs": [],
      "name": "DAEMON",
      "outputs": [
        {
          "internalType": "bytes32",
          "name": "",
          "type": "bytes32"
        }
      ],
      "stateMutability": "view",
      "type": "function"
    },
    {
      "inputs": [],
      "name": "DEFAULT_ADMIN_ROLE",
      "outputs": [
        {
          "internalType": "bytes32",
          "name": "",
          "type": "bytes32"
        }
      ],
      "stateMutability": "view",
      "type": "function"
    },
    {
      "inputs": [],
      "name": "ROOT",
      "outputs": [
        {
          "internalType": "bytes32",
          "name": "",
          "type": "bytes32"
        }
      ],
      "stateMutability": "view",
      "type": "function"
    },
    {
      "inputs": [
        {
          "internalType": "bytes32",
          "name": "role",
          "type": "bytes32"
        }
      ],
      "name": "getRoleAdmin",
      "outputs": [
        {
          "internalType": "bytes32",
          "name": "",
          "type": "bytes32"
        }
      ],
      "stateMutability": "view",
      "type": "function"
    },
    {
      "inputs": [
        {
          "internalType": "bytes32",
          "name": "role",
          "type": "bytes32"
        },
        {
          "internalType": "address",
          "name": "account",
          "type": "address"
        }
      ],
      "name": "grantRole",
      "outputs": [],
      "stateMutability": "nonpayable",
      "type": "function"
    },
    {
      "inputs": [
        {
          "internalType": "bytes32",
          "name": "role",
          "type": "bytes32"
        },
        {
          "internalType": "address",
          "name": "account",
          "type": "address"
        }
      ],
      "name": "hasRole",
      "outputs": [
        {
          "internalType": "bool",
          "name": "",
          "type": "bool"
        }
      ],
      "stateMutability": "view",
      "type": "function"
    },
    {
      "inputs": [
        {
          "internalType": "address",
          "name": "_address",
          "type": "address"
        }
      ],
      "name": "isAdmin",
      "outputs": [
        {
          "internalType": "bool",
          "name": "",
          "type": "bool"
        }
      ],
      "stateMutability": "view",
      "type": "function"
    },
    {
      "inputs": [
        {
          "internalType": "address",
          "name": "_address",
          "type": "address"
        }
      ],
      "name": "isDaemon",
      "outputs": [
        {
          "internalType": "bool",
          "name": "",
          "type": "bool"
        }
      ],
      "stateMutability": "view",
      "type": "function"
    },
    {
      "inputs": [
        {
          "internalType": "address",
          "name": "_address",
          "type": "address"
        }
      ],
      "name": "isRoot",
      "outputs": [
        {
          "internalType": "bool",
          "name": "",
          "type": "bool"
        }
      ],
      "stateMutability": "view",
      "type": "function"
    },
    {
      "inputs": [],
      "name": "nextRoot",
      "outputs": [
        {
          "internalType": "address",
          "name": "",
          "type": "address"
        }
      ],
      "stateMutability": "view",
      "type": "function"
    },
    {
      "inputs": [],
      "name": "pullRoot",
      "outputs": [],
      "stateMutability": "nonpayable",
      "type": "function"
    },
    {
      "inputs": [
        {
          "internalType": "address",
          "name": "_newRoot",
          "type": "address"
        }
      ],
      "name": "pushRoot",
      "outputs": [],
      "stateMutability": "nonpayable",
      "type": "function"
    },
    {
      "inputs": [
        {
          "internalType": "bytes32",
          "name": "role",
          "type": "bytes32"
        },
        {
          "internalType": "address",
          "name": "account",
          "type": "address"
        }
      ],
      "name": "renounceRole",
      "outputs": [],
      "stateMutability": "nonpayable",
      "type": "function"
    },
    {
      "inputs": [
        {
          "internalType": "bytes32",
          "name": "role",
          "type": "bytes32"
        },
        {
          "internalType": "address",
          "name": "account",
          "type": "address"
        }
      ],
      "name": "revokeRole",
      "outputs": [],
      "stateMutability": "nonpayable",
      "type": "function"
    },
    {
      "inputs": [],
      "name": "rootAddress",
      "outputs": [
        {
          "internalType": "address",
          "name": "",
          "type": "address"
        }
      ],
      "stateMutability": "view",
      "type": "function"
    },
    {
      "inputs": [
        {
          "internalType": "bytes4",
          "name": "interfaceId",
          "type": "bytes4"
        }
      ],
      "name": "supportsInterface",
      "outputs": [
        {
          "internalType": "bool",
          "name": "",
          "type": "bool"
        }
      ],
      "stateMutability": "view",
      "type": "function"
    }
  ],
  "transactionHash": "0x5ac4b75c4071efa3d8d6bf80f5c1137171e6577898761d6cb8e78d72252e382d",
  "args": [
    "0x9BE6cE9eD7d411f27781E7c18849546a43B7ebF4"
  ],
  "numDeployments": 2,
  "solcInputHash": "2a4a9765820ecdd0ac504dce4c6ff806",
  "bytecode": "0x608060405234801561001057600080fd5b50604051610c38380380610c3883398101604081905261002f916100fa565b600180546001600160a01b0319166001600160a01b03831617905561005560008261005b565b5061012a565b6000828152602081815260408083206001600160a01b038516845290915290205460ff166100f6576000828152602081815260408083206001600160a01b03851684529091529020805460ff191660011790556100b53390565b6001600160a01b0316816001600160a01b0316837f2f8788117e7eff1d82e926ec794901d17c78024a50270940304540a733656f0d60405160405180910390a45b5050565b60006020828403121561010c57600080fd5b81516001600160a01b038116811461012357600080fd5b9392505050565b610aff806101396000396000f3fe608060405234801561001057600080fd5b506004361061010b5760003560e01c80635909c12f116100a25780639ffa9a24116100715780639ffa9a241461024a578063a217fddf14610209578063aaa2b8c814610271578063bec596ad14610284578063d547741f1461028c57600080fd5b80635909c12f146102095780637fb7c0041461021157806391d1485414610224578063953ace271461023757600080fd5b80632a0acc6a116100de5780632a0acc6a146101a75780632f2ff15d146101ce57806336568abe146101e3578063557a6403146101f657600080fd5b806301ffc9a714610110578063248a9ca31461013857806324d7806c1461016957806329f165c41461017c575b600080fd5b61012361011e3660046108bb565b61029f565b60405190151581526020015b60405180910390f35b61015b6101463660046108e5565b60009081526020819052604090206001015490565b60405190815260200161012f565b61012361017736600461091a565b6102d6565b60025461018f906001600160a01b031681565b6040516001600160a01b03909116815260200161012f565b61015b7ff23ec0bb4210edd5cba85afd05127efcd2fc6a781bfed49188da1081670b22d881565b6101e16101dc366004610935565b610302565b005b6101e16101f1366004610935565b61032c565b61012361020436600461091a565b6103af565b61015b600081565b6101e161021f36600461091a565b6103bb565b610123610232366004610935565b610467565b61012361024536600461091a565b610490565b61015b7f753146545e671be055c7a54ff01b36dfc1e05c3a5149f58ce132ba09adbe6b2281565b60015461018f906001600160a01b031681565b6101e16104bc565b6101e161029a366004610935565b610599565b60006001600160e01b03198216637965db0b60e01b14806102d057506301ffc9a760e01b6001600160e01b03198316145b92915050565b60006102d07ff23ec0bb4210edd5cba85afd05127efcd2fc6a781bfed49188da1081670b22d883610467565b60008281526020819052604090206001015461031d816105be565b61032783836105cb565b505050565b6001600160a01b03811633146103a15760405162461bcd60e51b815260206004820152602f60248201527f416363657373436f6e74726f6c3a2063616e206f6e6c792072656e6f756e636560448201526e103937b632b9903337b91039b2b63360891b60648201526084015b60405180910390fd5b6103ab828261064f565b5050565b60006102d08183610467565b6001546001600160a01b031633146104155760405162461bcd60e51b815260206004820152601660248201527f524c3a2063616c6c6572206973206e6f7420726f6f74000000000000000000006044820152606401610398565b600280546001600160a01b0319166001600160a01b03838116918217909255600154604051919216907fbfa9906989178f3f4be98a013f07ca6d3a56f8edb68012038730be92db675c4390600090a350565b6000918252602082815260408084206001600160a01b0393909316845291905290205460ff1690565b60006102d07f753146545e671be055c7a54ff01b36dfc1e05c3a5149f58ce132ba09adbe6b2283610467565b6002546001600160a01b031633146105065760405162461bcd60e51b815260206004820152600d60248201526c1b9bdd081b995e1d081c9bdbdd609a1b6044820152606401610398565b60025461051e906000906001600160a01b03166105cb565b600154610536906000906001600160a01b031661064f565b6002546001546040516001600160a01b0392831692909116907f24c22f0c891fc2f7c5547e37b7f536348c2b2dbe6d3c345a356d8eb20501fc0d90600090a3600254600180546001600160a01b0319166001600160a01b03909216919091179055565b6000828152602081905260409020600101546105b4816105be565b610327838361064f565b6105c881336106b4565b50565b6105d58282610467565b6103ab576000828152602081815260408083206001600160a01b03851684529091529020805460ff1916600117905561060b3390565b6001600160a01b0316816001600160a01b0316837f2f8788117e7eff1d82e926ec794901d17c78024a50270940304540a733656f0d60405160405180910390a45050565b6106598282610467565b156103ab576000828152602081815260408083206001600160a01b0385168085529252808320805460ff1916905551339285917ff6391f5c32d9c69d2a47ea670b442974b53935d1edc7fd64eb21e047a839171b9190a45050565b6106be8282610467565b6103ab576106d6816001600160a01b03166014610718565b6106e1836020610718565b6040516020016106f2929190610991565b60408051601f198184030181529082905262461bcd60e51b825261039891600401610a06565b60606000610727836002610a4f565b610732906002610a6e565b67ffffffffffffffff81111561074a5761074a610a86565b6040519080825280601f01601f191660200182016040528015610774576020820181803683370190505b509050600360fc1b8160008151811061078f5761078f610a9c565b60200101906001600160f81b031916908160001a905350600f60fb1b816001815181106107be576107be610a9c565b60200101906001600160f81b031916908160001a90535060006107e2846002610a4f565b6107ed906001610a6e565b90505b6001811115610865576f181899199a1a9b1b9c1cb0b131b232b360811b85600f166010811061082157610821610a9c565b1a60f81b82828151811061083757610837610a9c565b60200101906001600160f81b031916908160001a90535060049490941c9361085e81610ab2565b90506107f0565b5083156108b45760405162461bcd60e51b815260206004820181905260248201527f537472696e67733a20686578206c656e67746820696e73756666696369656e746044820152606401610398565b9392505050565b6000602082840312156108cd57600080fd5b81356001600160e01b0319811681146108b457600080fd5b6000602082840312156108f757600080fd5b5035919050565b80356001600160a01b038116811461091557600080fd5b919050565b60006020828403121561092c57600080fd5b6108b4826108fe565b6000806040838503121561094857600080fd5b82359150610958602084016108fe565b90509250929050565b60005b8381101561097c578181015183820152602001610964565b8381111561098b576000848401525b50505050565b7f416363657373436f6e74726f6c3a206163636f756e74200000000000000000008152600083516109c9816017850160208801610961565b7001034b99036b4b9b9b4b733903937b6329607d1b60179184019182015283516109fa816028840160208801610961565b01602801949350505050565b6020815260008251806020840152610a25816040850160208701610961565b601f01601f19169190910160400192915050565b634e487b7160e01b600052601160045260246000fd5b6000816000190483118215151615610a6957610a69610a39565b500290565b60008219821115610a8157610a81610a39565b500190565b634e487b7160e01b600052604160045260246000fd5b634e487b7160e01b600052603260045260246000fd5b600081610ac157610ac1610a39565b50600019019056fea264697066735822122001d9d51168e746d77fc77a4f97c36728138743ed28f470d330bc042ca037f8c464736f6c634300080c0033",
  "devdoc": {
    "kind": "dev",
    "methods": {
      "getRoleAdmin(bytes32)": {
        "details": "Returns the admin role that controls `role`. See {grantRole} and {revokeRole}. To change a role's admin, use {_setRoleAdmin}."
      },
      "grantRole(bytes32,address)": {
        "details": "Grants `role` to `account`. If `account` had not been already granted `role`, emits a {RoleGranted} event. Requirements: - the caller must have ``role``'s admin role. May emit a {RoleGranted} event."
      },
      "hasRole(bytes32,address)": {
        "details": "Returns `true` if `account` has been granted `role`."
      },
      "renounceRole(bytes32,address)": {
        "details": "Revokes `role` from the calling account. Roles are often managed via {grantRole} and {revokeRole}: this function's purpose is to provide a mechanism for accounts to lose their privileges if they are compromised (such as when a trusted device is misplaced). If the calling account had been revoked `role`, emits a {RoleRevoked} event. Requirements: - the caller must be `account`. May emit a {RoleRevoked} event."
      },
      "revokeRole(bytes32,address)": {
        "details": "Revokes `role` from `account`. If `account` had been granted `role`, emits a {RoleRevoked} event. Requirements: - the caller must have ``role``'s admin role. May emit a {RoleRevoked} event."
      },
      "supportsInterface(bytes4)": {
        "details": "See {IERC165-supportsInterface}."
      }
    },
    "version": 1
  },
  "userdoc": {
    "kind": "user",
    "methods": {},
    "notice": "RolesLedger is a registry for roles meant to be a singleton",
    "version": 1
  },
  "storageLayout": {
    "storage": [
      {
        "astId": 70,
        "contract": "contracts/RolesLedger.sol:RolesLedger",
        "label": "_roles",
        "offset": 0,
        "slot": "0",
        "type": "t_mapping(t_bytes32,t_struct(RoleData)65_storage)"
      },
      {
        "astId": 2403,
        "contract": "contracts/RolesLedger.sol:RolesLedger",
        "label": "rootAddress",
        "offset": 0,
        "slot": "1",
        "type": "t_address"
      },
      {
        "astId": 2405,
        "contract": "contracts/RolesLedger.sol:RolesLedger",
        "label": "nextRoot",
        "offset": 0,
        "slot": "2",
        "type": "t_address"
      }
    ],
    "types": {
      "t_address": {
        "encoding": "inplace",
        "label": "address",
        "numberOfBytes": "20"
      },
      "t_bool": {
        "encoding": "inplace",
        "label": "bool",
        "numberOfBytes": "1"
      },
      "t_bytes32": {
        "encoding": "inplace",
        "label": "bytes32",
        "numberOfBytes": "32"
      },
      "t_mapping(t_address,t_bool)": {
        "encoding": "mapping",
        "key": "t_address",
        "label": "mapping(address => bool)",
        "numberOfBytes": "32",
        "value": "t_bool"
      },
      "t_mapping(t_bytes32,t_struct(RoleData)65_storage)": {
        "encoding": "mapping",
        "key": "t_bytes32",
        "label": "mapping(bytes32 => struct AccessControl.RoleData)",
        "numberOfBytes": "32",
        "value": "t_struct(RoleData)65_storage"
      },
      "t_struct(RoleData)65_storage": {
        "encoding": "inplace",
        "label": "struct AccessControl.RoleData",
        "members": [
          {
            "astId": 62,
            "contract": "contracts/RolesLedger.sol:RolesLedger",
            "label": "members",
            "offset": 0,
            "slot": "0",
            "type": "t_mapping(t_address,t_bool)"
          },
          {
            "astId": 64,
            "contract": "contracts/RolesLedger.sol:RolesLedger",
            "label": "adminRole",
            "offset": 0,
            "slot": "1",
            "type": "t_bytes32"
          }
        ],
        "numberOfBytes": "64"
      }
    }
  }
}